:1000000000308A00282800000A108A100A1182078E
:100010003F3406345B344F3466346D347D340734FA
:100020007F346F342230840083130008031925289D
:100030000230F800F701F70B1B28F80B1A2897304D
:10004000F700F70B2128800B18288A110A1258286C
:10005000840183131F308305831603170908C039F1
:10006000890003131F129F120030031788008312A8
:1000700087018801890100308316031386008500FB
:100080008501083083128500A0012008093C031C6B
:100090005C2820080420F800A100A109831686012D
:1000A0008312210886000230A100FA30A200122833
:0C00B000A10B5528A00A45284428630035
:04400E00F22CFF3F52
:00000001FF
;PIC16F887
